:100000000C94E1000C9409010C9409010C94090171
:100010000C9409010C9409010C9409010C94090138
:100020000C9409010C9409010C9409010C94090128
:100030000C9409010C9409010C9409010C94090118
:100040000C9455010C9409010C94F5030C942704AD
:100050000C9409010C9409010C9409010C940901F8
:100060000C9409010C940901000000080002010031
:100070000003040700000000000000000102040863
:100080001020408001020408102001020408102002
:10009000040404040404040402020202020203032E
:1000A00003030303000000002300260029000000D2
:1000B0000000250028002B0000000000240027007D
:1000C0002A0000407A10F35A00A0724E180900105E
:1000D000A5D4E80000E87648170000E40B540200BD
:1000E00000CA9A3B000000E1F505000080969800E8
:1000F000000040420F000000A08601000000102711
:1001000000000000E80300000000640000000000A0
:100110000A00000000000100000000002C76D888D2
:10012000DC674F0823DFC1DFAE59E1B1B796E5E3E5
:10013000E453C63AE651997696E8E6C28426EB89FE
:100140008C9B62ED407C6FFCEFBC9C9F40F2BAA59B
:100150006FA5F490055A2AF75C936B6CF9676DC133
:100160001BFCE0E40D47FEF520E6B500D0ED902E37
:100170000300943577050080841E080000204E0A95
:10018000000000C80C333333330F986E12831141D3
:10019000EF8D2114893BE65516CFFEE6DB18D1849E
:1001A0004B381BF77C1D901DA4BBE42420328472C5
:1001B0005E228100C9F124ECA1E53D274B015704E3
:1001C000510111241FBECFEFD8E0DEBFCDBF11E03B
:1001D000A0E0B1E0EEE9F5E102C005900D92A83192
:1001E000B107D9F721E0A8E1B1E001C01D92A83C18
:1001F000B207E1F711E0C0ECD1E004C02297FE01A4
:100200000E940F06CC3BD107C9F70E949B040C94B7
:10021000C20A0C94000026E040E051EE60E070E07D
:1002200087E291E00E94930362E370E080E090E057
:100230000E94C20160E084E00E944E0284E00E94BD
:100240008702892BD9F308954CEA56EE60E476E4F0
:1002500088E191E00E94B80566E071E088E191E0F4
:100260000E94A80580911C0190911D018138910583
:1002700060F068E171E087E291E00E94D20467E0FB
:1002800071E088E191E00E9464056FE070E080E039
:1002900090E00C94C20167E071E088E191E00C9479
:1002A0004E0588E191E00C94E0041F920F920FB686
:1002B0000F9211242F933F938F939F93AF93BF93EC
:1002C00080911F0190912001A0912101B091220104
:1002D00030911E0123E0230F2D3720F40196A11D3C
:1002E000B11D05C026E8230F0296A11DB11D209364
:1002F0001E0180931F0190932001A0932101B093D0
:1003000022018091230190912401A0912501B091B7
:1003100026010196A11DB11D809323019093240114
:10032000A0932501B0932601BF91AF919F918F912A
:100330003F912F910F900FBE0F901F9018953FB7D0
:10034000F8948091230190912401A0912501B0910E
:10035000260126B5A89B05C02F3F19F00196A11DC7
:10036000B11D3FBF6627782F892F9A2F620F711D0D
:10037000811D911D42E0660F771F881F991F4A95C6
:10038000D1F70895CF92DF92EF92FF92CF93DF9350
:100390006B017C010E949F01EB01C114D104E104B7
:1003A000F10489F00E94EA050E949F016C1B7D0BFD
:1003B000683E734090F381E0C81AD108E108F10863
:1003C000C851DC4FEACFDF91CF91FF90EF90DF90E3
:1003D000CF900895789484B5826084BD84B581609F
:1003E00084BD85B5826085BD85B5816085BDEEE63D
:1003F000F0E0808181608083E1E8F0E0108280811C
:1004000082608083808181608083E0E8F0E0808189
:1004100081608083E1EBF0E0808184608083E0EBA9
:10042000F0E0808181608083EAE7F0E08081846091
:1004300080838081826080838081816080838081ED
:10044000806880831092C1000895833081F028F481
:10045000813099F08230A1F008958730A9F088307A
:10046000B9F08430D1F4809180008F7D03C08091F9
:1004700080008F7780938000089584B58F7702C0C5
:1004800084B58F7D84BD08958091B0008F7703C0BF
:100490008091B0008F7D8093B0000895CF93DF935B
:1004A00090E0FC01E458FF4F2491FC01E057FF4F1E
:1004B0008491882349F190E0880F991FFC01E8544A
:1004C000FF4FA591B49182559F4FFC01C591D491E6
:1004D0009FB7611108C0F8948C91209582238C936A
:1004E000888182230AC0623051F4F8948C91322FB3
:1004F000309583238C938881822B888304C0F89461
:100500008C91822B8C939FBFDF91CF910895CF93D5
:10051000DF93282F30E0F901E859FF4F8491F9016A
:10052000E458FF4FD491F901E057FF4FC491CC2319
:1005300091F081110E942502EC2FF0E0EE0FFF1FD9
:10054000EC55FF4FA591B4912C912D2381E090E0C3
:1005500021F480E002C080E090E0DF91CF91089527
:10056000FC01818D228D90E0805C9F4F821B910960
:100570008F7399270895FC01918D828D981731F022
:10058000828DE80FF11D858D90E008958FEF9FEF2C
:100590000895FC01918D828D981761F0828DDF01A5
:1005A000A80FB11D5D968C91928D9F5F9F73928F66
:1005B00090E008958FEF9FEF08958DE494E0892BEC
:1005C00049F080E090E0892B29F00E944D048111D0
:1005D0000C9400000895FC01848DDF01A80FB11D6B
:1005E000A35ABF4F2C91848D90E001968F73992769
:1005F000848FA689B7892C93A089B1898C91806456
:100600008C93938D848D981306C00288F389E02D16
:1006100080818F7D80830895CF93DF93EC01888D57
:100620008823C9F0EA89FB89808185FD05C0A889F6
:10063000B9898C9186FD0FC00FB607FCF5CF80817C
:1006400085FFF2CFA889B9898C9185FFEDCFCE01C6
:100650000E94EB02E7CFDF91CF910895CF92DF9216
:10066000FF920F931F93CF93DF931F92CDB7DEB707
:100670006C0181E0D60158968C9358975B969C91BB
:100680005B975C968C915C97981307C05096ED91A0
:10069000FC915197808185FD2EC0F601038D10E0FD
:1006A0000F5F1F4F0F731127F02EF601848DF81284
:1006B00011C00FB607FCF9CFD6015096ED91FC9111
:1006C0005197808185FFF1CFC60169830E94EB02BB
:1006D0006981EBCF838DE80FF11DE35AFF4F6083F3
:1006E000D6015B960C935B975296ED91FC915397D4
:1006F000808180620CC0D6015696ED91FC9157978F
:1007000060835096ED91FC91519780818064808345
:1007100081E090E00F90DF91CF911F910F91FF90BA
:10072000DF90CF900895BF92CF92DF92EF92FF9229
:10073000CF93DF93EC016A017B01B22EE889F9893E
:1007400082E08083411581EE580761057105A1F0B3
:1007500060E079E08DE390E0A70196010E94EB054F
:1007600021503109410951095695479537952795EB
:10077000211580E1380798F0E889F989108260E84E
:1007800074E88EE190E0A70196010E94EB052150EC
:100790003109410951095695479537952795EC85BB
:1007A000FD853083EE85FF852083188EEC89FD89D9
:1007B000B082EA89FB89808180618083EA89FB8934
:1007C000808188608083EA89FB898081806880835A
:1007D000EA89FB8980818F7D8083DF91CF91FF90B3
:1007E000EF90DF90CF90BF9008951F920F920FB6B9
:1007F0000F9211242F938F939F93EF93FF93E09188
:100800003701F09138018081E0913D01F0913E0186
:1008100082FD12C09081809140018F5F8F73209183
:100820004101821751F0E0914001F0E0E95DFE4F97
:10083000958F8093400101C08081FF91EF919F913E
:100840008F912F910F900FBE0F901F9018951F92B0
:100850000F920FB60F9211242F933F934F935F93F4
:100860006F937F938F939F93AF93BF93EF93FF9378
:1008700087E291E00E94EB02FF91EF91BF91AF916F
:100880009F918F917F916F915F914F913F912F91A8
:100890000F900FBE0F901F90189587E291E00E9475
:1008A000B00221E0892B09F420E0822F08951092F4
:1008B0002A011092290188EE93E0A0E0B0E0809335
:1008C0002B0190932C01A0932D01B0932E018CE06D
:1008D00091E0909328018093270185EC90E090931C
:1008E00034018093330184EC90E09093360180933F
:1008F000350180EC90E0909338018093370181ECD2
:1009000090E090933A018093390182EC90E09093CB
:100910003C0180933B0186EC90E090933E018093F4
:100920003D0110924001109241011092420110923B
:100930004301089508950E94EA010E949A040E94CA
:100940000B01CDEDD2E00E9424012097E1F30E943B
:10095000DD02F9CFCF92DF92EF92FF920F931F93B8
:10096000CF93DF937C016A01EB0100E010E00C15EE
:100970001D0571F06991D701ED91FC910190F08115
:10098000E02DC7010995892B19F00F5F1F4FEFCF9D
:10099000C801DF91CF911F910F91FF90EF90DF90F1
:1009A000CF900895DC01ED91FC91DB0114964D91FF
:1009B0005C9115976D917C910280F381E02D0994F3
:1009C000FC01808191810C94CC06CF93DF93EC01E4
:1009D00088819981009711F00E94CC0619821882B3
:1009E0001D821C821B821A82DF91CF9108950F9382
:1009F0001F93CF93DF93EC018B016F5F7F4F888153
:100A000099810E945B07009731F0998388831B834B
:100A10000A8381E001C080E0DF91CF911F910F91A7
:100A20000895CF93DF93EC0188819981892B29F078
:100A30008A819B818617970760F4CE010E94F70494
:100A4000882341F08C819D81892B19F4E881F981FB
:100A5000108281E0DF91CF910895EF92FF920F9382
:100A60001F93CF93DF93EC017B018A01BA010E94AF
:100A70001105811104C0CE010E94E50407C01D8349
:100A80000C83B701888199810E942E08CE01DF91E5
:100A9000CF911F910F91FF90EF900895FC0111826B
:100AA000108213821282158214826115710559F029
:100AB000FB0101900020E9F7AF0141505109461BAD
:100AC000570B0C942D050895CF93DF93EC0161151E
:100AD000710561F0FB0101900020E9F7AF01415081
:100AE0005109461B570B0E942D0502C00E94E504C8
:100AF000CE01DF91CF910895EF92FF920F931F9354
:100B0000CF93DF93EC017B010C811D816115710591
:100B100011F480E016C04115510591F0040F151F26
:100B2000B8010E9411058823A1F3288139818C81A5
:100B30009D81B701820F931F0E942E081D830C8395
:100B400081E0DF91CF911F910F91FF90EF90089579
:100B50006115710559F0FB0101900020E9F7AF0123
:100B600041505109461B570B0C947C0580E00895B9
:100B7000EF92FF920F931F93CF93DF93CDB7DEB722
:100B800064970FB6F894DEBF0FBECDBF7C01CB01DA
:100B9000BA018E010F5F1F4F22E044E00E9413064E
:100BA000FC0101900020E9F7AF0141505109481BB9
:100BB000590BBC01C7010E947C0564960FB6F894DE
:100BC000DEBF0FBECDBFDF91CF911F910F91FF9080
:100BD000EF9008950895A1E21A2EAA1BBB1BFD01F8
:100BE0000DC0AA1FBB1FEE1FFF1FA217B307E4070C
:100BF000F50720F0A21BB30BE40BF50B661F771F64
:100C0000881F991F1A9469F7609570958095909543
:100C10009B01AC01BD01CF010895EE0FFF1F0590B0
:100C2000F491E02D0994EF920F931F93CF93DF93EC
:100C3000E80147FF02C034E101C034E0E42FFF27A0
:100C4000E7FDF095F7FF03C0F195E195F109E32E7B
:100C5000022F2E2FAE010E943508CE01DF91CF91D9
:100C60001F910F91EF900895CF93DF9382309105FC
:100C700010F482E090E0E091C601F091C70120E01D
:100C800030E0A0E0B0E0309739F140815181481761
:100C90005907B8F04817590771F48281938110976A
:100CA00029F013969C938E9312972CC09093C701B2
:100CB0008093C60127C02115310531F04217530733
:100CC00018F0A901DB0101C0EF019A01BD01DF01AC
:100CD0000280F381E02DD7CF21153105F9F0281BD3
:100CE000390B2430310580F48A819B8161157105AF
:100CF00021F0FB019383828304C09093C70180930A
:100D0000C601FE01329644C0FE01E20FF31F81933B
:100D1000919322503109398328833AC02091C4012C
:100D20003091C501232B41F4209102013091030140
:100D30003093C5012093C40120910001309101013D
:100D40002115310541F42DB73EB740910401509172
:100D50000501241B350BE091C401F091C501E21798
:100D6000F307A0F42E1B3F0B2817390778F0AC01CE
:100D70004E5F5F4F2417350748F04E0F5F1F5093AB
:100D8000C5014093C4018193919302C0E0E0F0E07B
:100D9000CF01DF91CF910895CF93DF93009709F4AE
:100DA00087C0FC01329713821282C091C601D09194
:100DB000C701209781F420813181280F391F80914C
:100DC000C4019091C5018217930779F5F093C5018D
:100DD000E093C4016DC0DE0120E030E0AE17BF0734
:100DE00050F412964D915C9113979D014115510558
:100DF00009F1DA01F3CFB383A28340815181840FDB
:100E0000951F8A179B0771F48D919C911197840F00
:100E1000951F02969183808312968D919C911397D2
:100E2000938382832115310529F4F093C701E09360
:100E3000C6013EC0D9011396FC93EE9312974D91D3
:100E40005D91A40FB51FEA17FB0779F480819181AA
:100E5000840F951F0296D90111969C938E938281DF
:100E6000938113969C938E931297E0E0F0E08A8131
:100E70009B81009719F0FE01EC01F9CFCE0102969B
:100E800028813981820F931F2091C4013091C501BF
:100E90002817390769F4309729F41092C701109286
:100EA000C60102C013821282D093C501C093C4014F
:100EB000DF91CF910895A0E0B0E0E1E6F7E00C9477
:100EC0008F0AEC01CB01209719F40E943406B8C0B8
:100ED000FE01E60FF71F9E0122503109E217F307CA
:100EE00008F4ACC0D9010D911C9111970617170792
:100EF000B8F00530110508F49FC0A801445051090D
:100F00004617570708F498C002501109061B170B23
:100F1000019311936D937C93CF010E94CC068CC0FA
:100F20005B01A01AB10A4E01800E911EA091C6016C
:100F3000B091C701612C712C60E070E0109709F44A
:100F400049C0A815B905C9F5ED90FC901197670146
:100F500042E0C40ED11CCA14DB0478F147018A18A0
:100F60009B08640142E0C40ED11C1296BC901297FB
:100F70001396AC91B5E0CB16D10440F0B282A383B6
:100F800091828082D9018D939C9309C00E5F1F4F7F
:100F90000E0D1F1DF90111830083EB2DFA2F611532
:100FA000710531F0DB011396FC93EE93129744C068
:100FB000F093C701E093C6013FC06D917C911197FA
:100FC0006616770608F43B01BD0112960D90BC91A0
:100FD000A02DB4CF6091C4017091C5016815790549
:100FE000E9F468167906D0F44091000150910101AE
:100FF0004115510541F44DB75EB760910401709100
:101000000501461B570BE417F507C0F4F093C50123
:10101000E093C401F901918380830EC00E943406DD
:101020007C01009759F0A801BE010E942508CE015D
:101030000E94CC06C70104C0CE0102C080E090E04F
:10104000CDB7DEB7EEE00C94AB0AFB01DC0102C0C9
:1010500001900D9241505040D8F70895FB01DC01FA
:1010600001900D920020E1F708956F927F929F9278
:10107000AF92BF92CF92DF92EF92FF920F931F93A6
:10108000CF93DF93CDB7DEB729970FB6F894DEBFC5
:101090000FBECDBF6A01B22E102F0C3320F4FF24F7
:1010A000F394F00E02C04CE3F42E0F2D27E0AE01B6
:1010B0004F5F5F4F0E94B3097981272F297021303C
:1010C00031F0E1FC06C0E0FC06C060E005C06DE266
:1010D00003C06BE201C060E2AE2DA07173FF36C0A9
:1010E000662311F084E001C083E08B1510F4B81A78
:1010F00001C0B12CA1110BC0F6018B2D90E2882309
:1011000019F091938150FBCFCB0CD11CB12C6623ED
:1011100031F0F601608396012F5F3F4F6901C601F0
:101120000396E2FE05C02EE4F601208331E404C0FC
:101130002EE6F601208331E631832283FC012B2D3C
:1011400030E22223F1F131932150FBCF72FF40C0F6
:10115000662311F084E001C083E08B1510F4B81A07
:1011600001C0B12CA1110BC0F6018B2D90E2882398
:1011700019F091938150FBCFCB0CD11CB12C66237D
:1011800031F0F601608396012F5F3F4F6901C60180
:101190000396E2FE07C029E4F60120832EE42183B2
:1011A00026E406C029E6F60120832EE6218326E602
:1011B0002283FC012B2D30E2222319F031932150A0
:1011C000FBCFFC01EB0DF11D10828EEF9FEFB7C03E
:1011D000B1E0611101C0B0E04B2F50E018161906C4
:1011E00024F49C012F5F3F4F02C021E030E0240F28
:1011F000351F112329F0412F50E04F5F5F4F02C090
:1012000040E050E0420F531F2B2D30E042175307B0
:1012100014F4B41A01C0B12C2E2D287159F4F60122
:101220002B2D30E2222319F031932150FBCFCB0C30
:10123000D11CB12CBB2331F0F601608396012F5FE6
:101240003F4F6901A1110BC0F6012B2D30E3222382
:1012500019F031932150FBCFCB0CD11CB12CF80EDF
:101260000A81372F3071A32E74FF03C0013309F4B4
:10127000FA941F142CF42F2D293018F028E001C007
:1012800021E0682F392F97FF02C060E030E0462F41
:10129000532F612C712C3EE2932EBC01621B71090D
:1012A0009B01DC01A41BB50BE1E0F0E0EC0FFD1F9E
:1012B000AE0FBF1FE12EF12CF194E194F1084F3FE6
:1012C000FFEF5F0731F4F6019082B6016F5F7F4F49
:1012D0006B01841795074CF02417350734F4BD01D2
:1012E000660D771DFB01118101C010E341505109CA
:1012F000FFEF6F1A7F0AB6016F5F7F4F4E155F05D4
:1013000024F0F60110836B01DACF4817590739F43E
:10131000063320F4053319F4A11001C011E3F601DE
:101320001083FB018B2D90E2882319F0919381505B
:10133000FBCFFB01EB0DF11D108280E090E02996C0
:101340000FB6F894DEBF0FBECDBFDF91CF911F91D6
:101350000F91FF90EF90DF90CF90BF90AF909F9054
:101360007F906F900895283008F027E03327DA0146
:10137000990F311D87FD916000966105710539F463
:1013800032602E5F3D9330E32A95E1F708959F3F49
:1013900030F080387105610509F03C5F3C5F3D939A
:1013A000913008F08068911DDF93CF931F930F93C6
:1013B000FF92EF92192F987F9695E92F9695969523
:1013C000E90FFF27E45EFE4F99273327EE24FF2421
:1013D000A701E70105900894079428F4360FE71E4B
:1013E000F81E491F511D660F771F881F991F06940D
:1013F000A1F70590079428F4E70EF81E491F561F21
:10140000C11D770F881F991F661F0694A1F70590CD
:10141000079428F4F80E491F561FC71FD11D880FC7
:10142000991F661F771F0694A1F70590079420F473
:10143000490F561FC71FD81F990F661F771F881F98
:101440000694A9F784911095177041F0D695C79529
:1014500057954795F794E7941A95C1F7E2ECF0E0B9
:1014600068941590159135916591959105907FE25D
:101470007395E118F10A430B560BC90BD009C0F75D
:10148000E10CF11E431F561FC91FD01D7EF470339F
:1014900011F48A95E6CFE894015030F0080F0AF471
:1014A0000027021708F4202F2395022F7A3328F003
:1014B00079E37D932A95E9F710C07D932A9589F603
:1014C000069497956795379517951794E118F10A43
:1014D000430B560BC90BD00998F023957E91739559
:1014E0007A3308F070E37C932013B8F77E91706133
:1014F0007D9330F0839571E37D9370E32A95E1F756
:101500001124EF90FF900F911F91CF91DF919927B8
:1015100087FD909508952F923F924F925F926F9220
:101520007F928F929F92AF92BF92CF92DF92EF9273
:10153000FF920F931F93CF93DF93CDB7DEB7CA1BF4
:10154000DB0B0FB6F894DEBF0FBECDBF09942A881F
:10155000398848885F846E847D848C849B84AA84C7
:10156000B984C884DF80EE80FD800C811B81AA8154
:10157000B981CE0FD11D0FB6F894DEBF0FBECDBF1F
:10158000ED01089511E0C0ECD1E004C0FE010E941D
:0E1590000F062296C23CD107C9F7F894FFCF90
:10159E000000C80180000A00000000002E03AA040B
:0815AE00B002C902BB020C03EC
:00000001FF
